{
  "_format": "hh-sol-artifact-1",
  "contractName": "PmknFarm",
  "sourceName": "contracts/PmknFarm.sol",
  "abi": [
    {
      "inputs": [
        {
          "internalType": "contract IERC20",
          "name": "_daiToken",
          "type": "address"
        },
        {
          "internalType": "contract PmknToken",
          "name": "_pmknToken",
          "type": "address"
        }
      ],
      "stateMutability": "nonpayable",
      "type": "constructor"
    },
    {
      "anonymous": false,
      "inputs": [
        {
          "indexed": true,
          "internalType": "address",
          "name": "from",
          "type": "address"
        },
        {
          "indexed": false,
          "internalType": "uint256",
          "name": "amount",
          "type": "uint256"
        }
      ],
      "name": "Stake",
      "type": "event"
    },
    {
      "anonymous": false,
      "inputs": [
        {
          "indexed": true,
          "internalType": "address",
          "name": "from",
          "type": "address"
        },
        {
          "indexed": false,
          "internalType": "uint256",
          "name": "amount",
          "type": "uint256"
        }
      ],
      "name": "Unstake",
      "type": "event"
    },
    {
      "anonymous": false,
      "inputs": [
        {
          "indexed": true,
          "internalType": "address",
          "name": "from",
          "type": "address"
        },
        {
          "indexed": false,
          "internalType": "uint256",
          "name": "amount",
          "type": "uint256"
        }
      ],
      "name": "YieldWithdraw",
      "type": "event"
    },
    {
      "inputs": [
        {
          "internalType": "address",
          "name": "user",
          "type": "address"
        }
      ],
      "name": "calculateYieldTime",
      "outputs": [
        {
          "internalType": "uint256",
          "name": "",
          "type": "uint256"
        }
      ],
      "stateMutability": "view",
      "type": "function"
    },
    {
      "inputs": [
        {
          "internalType": "address",
          "name": "user",
          "type": "address"
        }
      ],
      "name": "calculateYieldTotal",
      "outputs": [
        {
          "internalType": "uint256",
          "name": "",
          "type": "uint256"
        }
      ],
      "stateMutability": "view",
      "type": "function"
    },
    {
      "inputs": [],
      "name": "daiToken",
      "outputs": [
        {
          "internalType": "contract IERC20",
          "name": "",
          "type": "address"
        }
      ],
      "stateMutability": "view",
      "type": "function"
    },
    {
      "inputs": [
        {
          "internalType": "address",
          "name": "",
          "type": "address"
        }
      ],
      "name": "isStaking",
      "outputs": [
        {
          "internalType": "bool",
          "name": "",
          "type": "bool"
        }
      ],
      "stateMutability": "view",
      "type": "function"
    },
    {
      "inputs": [],
      "name": "name",
      "outputs": [
        {
          "internalType": "string",
          "name": "",
          "type": "string"
        }
      ],
      "stateMutability": "view",
      "type": "function"
    },
    {
      "inputs": [
        {
          "internalType": "address",
          "name": "",
          "type": "address"
        }
      ],
      "name": "pmknBalance",
      "outputs": [
        {
          "internalType": "uint256",
          "name": "",
          "type": "uint256"
        }
      ],
      "stateMutability": "view",
      "type": "function"
    },
    {
      "inputs": [],
      "name": "pmknToken",
      "outputs": [
        {
          "internalType": "contract PmknToken",
          "name": "",
          "type": "address"
        }
      ],
      "stateMutability": "view",
      "type": "function"
    },
    {
      "inputs": [
        {
          "internalType": "uint256",
          "name": "amount",
          "type": "uint256"
        }
      ],
      "name": "stake",
      "outputs": [],
      "stateMutability": "nonpayable",
      "type": "function"
    },
    {
      "inputs": [
        {
          "internalType": "address",
          "name": "",
          "type": "address"
        }
      ],
      "name": "stakingBalance",
      "outputs": [
        {
          "internalType": "uint256",
          "name": "",
          "type": "uint256"
        }
      ],
      "stateMutability": "view",
      "type": "function"
    },
    {
      "inputs": [
        {
          "internalType": "address",
          "name": "",
          "type": "address"
        }
      ],
      "name": "startTime",
      "outputs": [
        {
          "internalType": "uint256",
          "name": "",
          "type": "uint256"
        }
      ],
      "stateMutability": "view",
      "type": "function"
    },
    {
      "inputs": [
        {
          "internalType": "uint256",
          "name": "amount",
          "type": "uint256"
        }
      ],
      "name": "unstake",
      "outputs": [],
      "stateMutability": "nonpayable",
      "type": "function"
    },
    {
      "inputs": [],
      "name": "withdrawYield",
      "outputs": [],
      "stateMutability": "nonpayable",
      "type": "function"
    }
  ],
  "bytecode": "0x60806040526040518060400160405280600981526020017f546f6b656e4661726d000000000000000000000000000000000000000000000081525060049080519060200190620000519291906200010f565b503480156200005f57600080fd5b50604051620018c4380380620018c48339818101604052810190620000859190620001ed565b81600560006101000a81548173ffffffffffffffffffffffffffffffffffffffff021916908373ffffffffffffffffffffffffffffffffffffffff16021790555080600660006101000a81548173ffffffffffffffffffffffffffffffffffffffff021916908373ffffffffffffffffffffffffffffffffffffffff160217905550505062000323565b8280546200011d906200028a565b90600052602060002090601f0160209004810192826200014157600085556200018d565b82601f106200015c57805160ff19168380011785556200018d565b828001600101855582156200018d579182015b828111156200018c5782518255916020019190600101906200016f565b5b5090506200019c9190620001a0565b5090565b5b80821115620001bb576000816000905550600101620001a1565b5090565b600081519050620001d081620002ef565b92915050565b600081519050620001e78162000309565b92915050565b600080604083850312156200020157600080fd5b60006200021185828601620001bf565b92505060206200022485828601620001d6565b9150509250929050565b60006200023b826200026a565b9050919050565b60006200024f826200022e565b9050919050565b600062000263826200022e565b9050919050565b600073ffffffffffffffffffffffffffffffffffffffff82169050919050565b60006002820490506001821680620002a357607f821691505b60208210811415620002ba57620002b9620002c0565b5b50919050565b7f4e487b7100000000000000000000000000000000000000000000000000000000600052602260045260246000fd5b620002fa8162000242565b81146200030657600080fd5b50565b620003148162000256565b81146200032057600080fd5b50565b61159180620003336000396000f3fe608060405234801561001057600080fd5b50600436106100b45760003560e01c8063828bee5911610071578063828bee59146101b3578063980d6116146101e3578063a694fc3a14610213578063be22f5461461022f578063e0704fe31461024d578063e507a8a41461026b576100b4565b806306872661146100b957806306fdde03146100e95780632e17de781461010757806345bc78ab146101235780636e1dc66e146101535780636f49712b14610183575b600080fd5b6100d360048036038101906100ce9190610edd565b610275565b6040516100e091906111bc565b60405180910390f35b6100f161031b565b6040516100fe919061113a565b60405180910390f35b610121600480360381019061011c9190610f2f565b6103a9565b005b61013d60048036038101906101389190610edd565b61072e565b60405161014a91906111bc565b60405180910390f35b61016d60048036038101906101689190610edd565b610746565b60405161017a91906111bc565b60405180910390f35b61019d60048036038101906101989190610edd565b61075e565b6040516101aa91906110e9565b60405180910390f35b6101cd60048036038101906101c89190610edd565b61077e565b6040516101da91906111bc565b60405180910390f35b6101fd60048036038101906101f89190610edd565b610796565b60405161020a91906111bc565b60405180910390f35b61022d60048036038101906102289190610f2f565b6107f5565b005b610237610b9f565b6040516102449190611104565b60405180910390f35b610255610bc5565b604051610262919061111f565b60405180910390f35b610273610beb565b005b600080670de0b6b3a764000061028a84610796565b610294919061127a565b90506000620151809050600081836102ac9190611249565b90506000670de0b6b3a7640000826000808973ffffffffffffffffffffffffffffffffffffffff1673ffffffffffffffffffffffffffffffffffffffff16815260200190815260200160002054610303919061127a565b61030d9190611249565b905080945050505050919050565b60048054610328906113cb565b80601f0160208091040260200160405190810160405280929190818152602001828054610354906113cb565b80156103a15780601f10610376576101008083540402835291602001916103a1565b820191906000526020600020905b81548152906001019060200180831161038457829003601f168201915b505050505081565b60011515600160003373ffffffffffffffffffffffffffffffffffffffff1673ffffffffffffffffffffffffffffffffffffffff16815260200190815260200160002060009054906101000a900460ff1615151480156104475750806000803373ffffffffffffffffffffffffffffffffffffffff1673ffffffffffffffffffffffffffffffffffffffff1681526020019081526020016000205410155b610486576040517f08c379a000000000000000000000000000000000000000000000000000000000815260040161047d9061119c565b60405180910390fd5b600061049133610275565b905042600260003373ffffffffffffffffffffffffffffffffffffffff1673ffffffffffffffffffffffffffffffffffffffff16815260200190815260200160002081905550600082905060009250806000803373ffffffffffffffffffffffffffffffffffffffff1673ffffffffffffffffffffffffffffffffffffffff168152602001908152602001600020600082825461052e91906112d4565b92505081905550600560009054906101000a900473ffffffffffffffffffffffffffffffffffffffff1673ffffffffffffffffffffffffffffffffffffffff1663a9059cbb33836040518363ffffffff1660e01b81526004016105929291906110c0565b602060405180830381600087803b1580156105ac57600080fd5b505af11580156105c0573d6000803e3d6000fd5b505050506040513d601f19601f820116820180604052508101906105e49190610f06565b5081600360003373ffffffffffffffffffffffffffffffffffffffff1673ffffffffffffffffffffffffffffffffffffffff168152602001908152602001600020600082825461063491906111f3565b9250508190555060008060003373ffffffffffffffffffffffffffffffffffffffff1673ffffffffffffffffffffffffffffffffffffffff1681526020019081526020016000205414156106db576000600160003373ffffffffffffffffffffffffffffffffffffffff1673ffffffffffffffffffffffffffffffffffffffff16815260200190815260200160002060006101000a81548160ff0219169083151502179055505b3373ffffffffffffffffffffffffffffffffffffffff167f85082129d87b2fe11527cb1b3b7a520aeb5aa6913f88a3d8757fe40d1db02fdd8460405161072191906111bc565b60405180910390a2505050565b60006020528060005260406000206000915090505481565b60026020528060005260406000206000915090505481565b60016020528060005260406000206000915054906101000a900460ff1681565b60036020528060005260406000206000915090505481565b6000804290506000600260008573ffffffffffffffffffffffffffffffffffffffff1673ffffffffffffffffffffffffffffffffffffffff16815260200190815260200160002054826107e991906112d4565b90508092505050919050565b6000811180156108af575080600560009054906101000a900473ffffffffffffffffffffffffffffffffffffffff1673ffffffffffffffffffffffffffffffffffffffff166370a08231336040518263ffffffff1660e01b815260040161085c919061106e565b60206040518083038186803b15801561087457600080fd5b505afa158015610888573d6000803e3d6000fd5b505050506040513d601f19601f820116820180604052508101906108ac9190610f58565b10155b6108ee576040517f08c379a00000000000000000000000000000000000000000000000000000000081526004016108e59061117c565b60405180910390fd5b60011515600160003373ffffffffffffffffffffffffffffffffffffffff1673ffffffffffffffffffffffffffffffffffffffff16815260200190815260200160002060009054906101000a900460ff16151514156109ac57600061095233610275565b905080600360003373ffffffffffffffffffffffffffffffffffffffff1673ffffffffffffffffffffffffffffffffffffffff16815260200190815260200160002060008282546109a391906111f3565b92505081905550505b600560009054906101000a900473ffffffffffffffffffffffffffffffffffffffff1673ffffffffffffffffffffffffffffffffffffffff166323b872dd3330846040518463ffffffff1660e01b8152600401610a0b93929190611089565b602060405180830381600087803b158015610a2557600080fd5b505af1158015610a39573d6000803e3d6000fd5b505050506040513d601f19601f82011682018060405250810190610a5d9190610f06565b50806000803373ffffffffffffffffffffffffffffffffffffffff1673ffffffffffffffffffffffffffffffffffffffff1681526020019081526020016000206000828254610aac91906111f3565b9250508190555042600260003373ffffffffffffffffffffffffffffffffffffffff1673ffffffffffffffffffffffffffffffffffffffff1681526020019081526020016000208190555060018060003373ffffffffffffffffffffffffffffffffffffffff1673ffffffffffffffffffffffffffffffffffffffff16815260200190815260200160002060006101000a81548160ff0219169083151502179055503373ffffffffffffffffffffffffffffffffffffffff167febedb8b3c678666e7f36970bc8f57abf6d8fa2e828c0da91ea5b75bf68ed101a82604051610b9491906111bc565b60405180910390a250565b600560009054906101000a900473ffffffffffffffffffffffffffffffffffffffff1681565b600660009054906101000a900473ffffffffffffffffffffffffffffffffffffffff1681565b6000610bf633610275565b90506000811180610c4657506000600360003373ffffffffffffffffffffffffffffffffffffffff1673ffffffffffffffffffffffffffffffffffffffff16815260200190815260200160002054115b610c85576040517f08c379a0000000000000000000000000000000000000000000000000000000008152600401610c7c9061115c565b60405180910390fd5b6000600360003373ffffffffffffffffffffffffffffffffffffffff1673ffffffffffffffffffffffffffffffffffffffff1681526020019081526020016000205414610d65576000600360003373ffffffffffffffffffffffffffffffffffffffff1673ffffffffffffffffffffffffffffffffffffffff1681526020019081526020016000205490506000600360003373ffffffffffffffffffffffffffffffffffffffff1673ffffffffffffffffffffffffffffffffffffffff168152602001908152602001600020819055508082610d6191906111f3565b9150505b42600260003373ffffffffffffffffffffffffffffffffffffffff1673ffffffffffffffffffffffffffffffffffffffff16815260200190815260200160002081905550600660009054906101000a900473ffffffffffffffffffffffffffffffffffffffff1673ffffffffffffffffffffffffffffffffffffffff166340c10f1933836040518363ffffffff1660e01b8152600401610e069291906110c0565b600060405180830381600087803b158015610e2057600080fd5b505af1158015610e34573d6000803e3d6000fd5b505050503373ffffffffffffffffffffffffffffffffffffffff167f92044e3943309ee5950e21bc7421d02c1df75f0df33c0d97c1143687b49a4c5782604051610e7e91906111bc565b60405180910390a250565b600081359050610e9881611516565b92915050565b600081519050610ead8161152d565b92915050565b600081359050610ec281611544565b92915050565b600081519050610ed781611544565b92915050565b600060208284031215610eef57600080fd5b6000610efd84828501610e89565b91505092915050565b600060208284031215610f1857600080fd5b6000610f2684828501610e9e565b91505092915050565b600060208284031215610f4157600080fd5b6000610f4f84828501610eb3565b91505092915050565b600060208284031215610f6a57600080fd5b6000610f7884828501610ec8565b91505092915050565b610f8a81611308565b82525050565b610f998161131a565b82525050565b610fa881611350565b82525050565b610fb781611374565b82525050565b6000610fc8826111d7565b610fd281856111e2565b9350610fe2818560208601611398565b610feb8161148a565b840191505092915050565b60006110036013836111e2565b915061100e8261149b565b602082019050919050565b6000611026601c836111e2565b9150611031826114c4565b602082019050919050565b60006110496012836111e2565b9150611054826114ed565b602082019050919050565b61106881611346565b82525050565b60006020820190506110836000830184610f81565b92915050565b600060608201905061109e6000830186610f81565b6110ab6020830185610f81565b6110b8604083018461105f565b949350505050565b60006040820190506110d56000830185610f81565b6110e2602083018461105f565b9392505050565b60006020820190506110fe6000830184610f90565b92915050565b60006020820190506111196000830184610f9f565b92915050565b60006020820190506111346000830184610fae565b92915050565b600060208201905081810360008301526111548184610fbd565b905092915050565b6000602082019050818103600083015261117581610ff6565b9050919050565b6000602082019050818103600083015261119581611019565b9050919050565b600060208201905081810360008301526111b58161103c565b9050919050565b60006020820190506111d1600083018461105f565b92915050565b600081519050919050565b600082825260208201905092915050565b60006111fe82611346565b915061120983611346565b9250827fffffffffffffffffffffffffffffffffffffffffffffffffffffffffffffffff0382111561123e5761123d6113fd565b5b828201905092915050565b600061125482611346565b915061125f83611346565b92508261126f5761126e61142c565b5b828204905092915050565b600061128582611346565b915061129083611346565b9250817fffffffffffffffffffffffffffffffffffffffffffffffffffffffffffffffff04831182151516156112c9576112c86113fd565b5b828202905092915050565b60006112df82611346565b91506112ea83611346565b9250828210156112fd576112fc6113fd565b5b828203905092915050565b600061131382611326565b9050919050565b60008115159050919050565b600073ffffffffffffffffffffffffffffffffffffffff82169050919050565b6000819050919050565b600061135b82611362565b9050919050565b600061136d82611326565b9050919050565b600061137f82611386565b9050919050565b600061139182611326565b9050919050565b60005b838110156113b657808201518184015260208101905061139b565b838111156113c5576000848401525b50505050565b600060028204905060018216806113e357607f821691505b602082108114156113f7576113f661145b565b5b50919050565b7f4e487b7100000000000000000000000000000000000000000000000000000000600052601160045260246000fd5b7f4e487b7100000000000000000000000000000000000000000000000000000000600052601260045260246000fd5b7f4e487b7100000000000000000000000000000000000000000000000000000000600052602260045260246000fd5b6000601f19601f8301169050919050565b7f4e6f7468696e6720746f20776974686472617700000000000000000000000000600082015250565b7f596f752063616e6e6f74207374616b65207a65726f20746f6b656e7300000000600082015250565b7f4e6f7468696e6720746f20756e7374616b650000000000000000000000000000600082015250565b61151f81611308565b811461152a57600080fd5b50565b6115368161131a565b811461154157600080fd5b50565b61154d81611346565b811461155857600080fd5b5056fea26469706673582212207cbce8759c05078f7bc427fe2cb05d43a6fe2f4460b670ee517506bdf6624a5764736f6c63430008040033",
  "linkReferences": {},
  "deployedLinkReferences": {}
}